:100000000C9448070C948F070C948F070C948F075F
:100010000C948F070C948F070C948F070C948F0708
:100020000C948F070C948F070C94D1290C94A52A5B
:100030000C94EE1B0C948F070C948F070C948F0775
:100040000C948F070C948F070C948F070C948F07D8
:100050000C948F070C94451C0C948F070C948F07FD
:100060000C948F070C948F070C948F070C948F07B8
:100070000C948F070C948F070C948F070C948F07A8
:100080000C948F070C948F070C948F070C948F0798
:100090000C948F070C948F070C948F070C948F0788
:1000A0000C948F070C948F070C948F070A0025304F
:1000B000313662003A200025303258000A722F6330
:1000C00020303132333435363738394142434445B4
:1000D000460A002D002700260025002400230001E9
:1000E0000001002200210020001F001E002E002F12
:1000F00000130012000C0018001C0030005D0017F7
:1001000000150008001A0014002B00340033000F03
:10011000000E000D000B0032005C000A0009000711
:1001200000160004002900E50038003700360010F2
:10013000001100640001530500190006001B001D9A
:1001400000E100010001000100650038744C432CFF
:10015000002A4228612E64E3000100010001000131
:100160000001000100010001000100010001000187
:100170000001000100010001003500000001000144
:100180000001000100010001000100630061006046
:10019000005F001B000100000001000100010001E0
:1001A0000001000100010054005E005D005C00568B
:1001B0000001000000010001000100010001000138
:1001C00000010055005B005A005900570001000172
:1001D00000010001000100010001000100010062B6
:1001E00000670001000100010001000100010001A1
:1001F00000010001000100010001000100010001F7
:1002000000010001000100000000000000000000EB
:10021000000000010001004B004D0052004A0000A8
:1002200000000000000000000000000000000000CE
:100230000001004E004F005100500000000000007F
:1002400000000000000000000000000100010000AC
:10025000000000000000000000E1000100010001BA
:100260000001000100010001000100010001000186
:1002700000010001000100000000004500440043AF
:1002800000530001000100530045004400430000FA
:100290000000000000000042004100400049000052
:1002A0000000004900420041004000000000000042
:1002B0000000003F003E003D000000010000000083
:1002C000003F003E003D0000000000000000003C38
:1002D000003B003A0000000000000000003C003B32
:1002E000003A0000000000010001000100010001CF
:1002F00000010001000100010001000100010001F6
:1003000000010044454255473A2064697361626CBC
:1003100065642E0A0044454255473A20656E616285
:100320006C65642E0A000A002530325820006B6587
:1003300079626F6172645F7265706F72743A2000E7
:100340000A0025303258006B6579626F6172645F14
:100350007365745F6C65643A20004F6E6573686FF7
:10036000743A2074696D656F75740A0064656C5F1A
:100370006B65795F6269743A2063616E27742064EB
:10038000656C3A20253032580A006164645F6B6501
:10039000795F6269743A2063616E277420616464D6
:1003A0003A20253032580A00290A002575002F000E
:1003B0002575005D280025640020002564002000CC
:1003C00025640020002564007C0025303258006D33
:1003D0006F7573656B6579205B62746E7C782079CC
:1003E000207620685D287265702F61636C293A2041
:1003F0005B006D6B5F776865656C5F74696D655FE9
:10040000746F5F6D6178203D2025640A006D6B5F1D
:10041000776865656C5F6D61785F73706565642092
:100420003D2025640A006D6B5F74696D655F746FB4
:100430005F6D6178203D2025640A006D6B5F6D6102
:10044000785F7370656564203D2025640A006D6BDC
:100450005F696E74657276616C203D2025640A00C8
:100460006D6B5F64656C6179203D2025640A006DC9
:100470006B5F776865656C5F74696D655F746F5FEE
:100480006D6178203D2025640A006D6B5F7768659B
:10049000656C5F6D61785F7370656564203D2025D4
:1004A000640A006D6B5F74696D655F746F5F6D6189
:1004B00078203D2025640A006D6B5F6D61785F7365
:1004C00070656564203D2025640A006D6B5F696E70
:1004D00074657276616C203D2025640A006D6B5F47
:1004E00064656C6179203D2025640A000A00257549
:1004F00000363A20776865656C5F74696D655F7476
:100500006F5F6D61783A20000A00257500353A204A
:10051000776865656C5F6D61785F73706565643A77
:1005200020000A00257500343A2074696D655F74F7
:100530006F5F6D61783A20000A00257500333A201C
:100540006D61785F73706565643A20000A002575F7
:1005500000323A20696E74657276616C286D732979
:100560003A20000A00257500313A2064656C6179F3
:10057000282A31306D73293A20000A092D2056614E
:100580006C756573202D0A004D3E004D25643E209C
:10059000003F007365742064656661756C740A00C1
:1005A000433E200077686572652064656C74613A2B
:1005B00020637572736F723D25642C2077686565C2
:1005C0006C3D25640A53656520687474703A2F2F5A
:1005D000656E2E77696B6970656469612E6F7267ED
:1005E0002F77696B692F4D6F7573655F6B657973D5
:1005F0000A000A092D204D6F7573656B6579202DF2
:100600000A4553432F713A09717569740A313A09E1
:1006100064656C6179282A31306D73290A323A0990
:10062000696E74657276616C286D73290A333A09B4
:100630006D61785F73706565640A343A0974696D39
:10064000655F746F5F6D61780A353A097768656533
:100650006C5F6D61785F73706565640A363A09771F
:100660006865656C5F74696D655F746F5F6D6178F7
:100670000A0A703A097072696E742076616C756549
:10068000730A643A097365742064656661756C74F5
:10069000730A75703A092B310A646F776E3A092D27
:1006A000310A706775703A092B31300A7067646FD0
:1006B000776E3A092D31300A0A7370656564203D02
:1006C0002064656C7461202A206D61785F737065A9
:1006D0006564202A2028726570656174202F20745B
:1006E000696D655F746F5F6D6178290A003F004D29
:1006F0003E2000433E20004C25640A0074696D656D
:10070000725F72656164333228293A202530346C77
:10071000580A006B65796D61705F636F6E6669671B
:100720002E6E6B726F3A2025580A006B6579626FE6
:100730006172645F69646C653A2025580A006B65D4
:1007400079626F6172645F70726F746F636F6C3A1D
:100750002025580A00686F73745F6B6579626F615A
:1007600072645F6C65647328293A2025580A000A70
:10077000092D20537461747573202D0A004743437B
:100780003A20382E332E30204156522D4C494243C8
:100790003A20322E302E30204156525F415243488B
:1007A0003A20617672350A004F5054494F4E533A01
:1007B000204C554641204D4F5553454B45592045FA
:1007C000585452414B455920434F4E534F4C4520AE
:1007D000434F4D4D414E44204E4B524F2034303903
:1007E000360A004255494C443A2022302E392E37E1
:1007F0002D372D676538346539612D6469727479D8
:1008000022202832313A32333A3136204A756C2070
:1008100032372032303230290A005649443A2030EB
:1008200078464545442841534329205049443A20BD
:100830003078363036302847616C6C69756D204BE6
:100840006579626F61726429205645523A2030788A
:10085000303030310A00444553433A20712E6D2E1A
:100860006B2E206B6579626F617264206669726DB0
:100870007761726520666F722047616C6C69756D77
:10088000206B6579626F6172640A000A092D205637
:10089000657273696F6E202D0A000A092D20436F5F
:1008A0006E736F6C65202D0A4553432F713A0971A1
:1008B0007569740A6D3A096D6F7573656B65790AB0
:1008C000000A092D204D61676963202D0A443A0909
:1008D0004465627567204D65737361676520546F69
:1008E00067676C650A583A094D61747269782044EB
:1008F00065627567204D6F646520546F67676C652E
:10090000202D2053686F77206B6579707265737343
:10091000657320696E206D617472697820677269F1
:10092000640A4B3A094B6579626F617264204465D1
:1009300062756720546F67676C65202D2053686F60
:1009400077206B65797072657373207265706F7252
:10095000740A4D3A094465627567204D6F75736579
:1009600020546F67676C650A563A09566572736959
:100970006F6E0A533A095374617475730A433A09E6
:10098000416374697661746520436F6E736F6C6543
:10099000204D6F64650A46312D4631303A09537750
:1009A0006974636820746F204C6179657220302D02
:1009B000392028463130203D204C30290A302D394D
:1009C0003A0953776974636820746F204C617965C4
:1009D0007220302D390A47524156453A09537769FA
:1009E00074636820746F204C617965722030202810
:1009F000616C7465726E617465290A423A094A75C0
:100A00006D7020746F20426F6F746C6F61646572DB
:100A10000A4553433A094A756D7020746F20426F3E
:100A20006F746C6F616465722028616C7465726E9E
:100A3000617465290A453A095072696E742045450A
:100A400050524F4D2053657474696E67730A425358
:100A5000504143453A09436C656172204545505207
:100A60004F4D0A4E3A094E4B524F20546F67676CF8
:100A7000650A000A002575002E6E6B726F3A200021
:100A80000A002575002E737761705F6261636B7376
:100A90006C6173685F6261636B73706163653A2058
:100AA000000A002575002E737761705F67726176AA
:100AB000655F6573633A20000A002575002E6E6F2E
:100AC0005F6775693A20000A002575002E7377610B
:100AD000705F72616C745F726775693A20000A001A
:100AE0002575002E737761705F6C616C745F6C6745
:100AF00075693A20000A002575002E737761705FD2
:100B00007263746C5F726775693A20000A0025751C
:100B1000002E737761705F6C63746C5F6C677569CE
:100B20003A20000A002575002E636170736C6F63B4
:100B30006B5F746F5F636F6E74726F6C3A20000A44
:100B4000002575002E737761705F636F6E74726F2E
:100B50006C5F636170736C6F636B3A20000A0025F1
:100B6000303258006B65796D61705F636F6E6669D6
:100B7000672E7261773A20000A002575002E6D6F8E
:100B80007573653A20000A002575002E6B65796241
:100B90006F6172643A20000A002575002E6D617441
:100BA0007269783A20000A002575002E656E616230
:100BB0006C653A20000A0025303258006465627581
:100BC000675F636F6E6669672E7261773A20000A0D
:100BD0000025750064656661756C745F6C6179658C
:100BE000723A20003F004E4B524F3A206F66660A21
:100BF000004E4B524F3A206F6E0A000A6D6F7573AC
:100C0000653A206F66660A000A6D6F7573653A2053
:100C10006F6E0A000A6B6579626F6172643A206FC9
:100C200066660A000A6B6579626F6172643A206FCA
:100C30006E0A000A6D61747269783A206F66660AFE
:100C4000000A6D61747269783A206F6E0A000A6456
:100C5000656275673A206F66660A000A64656275A8
:100C6000673A206F6E0A000A0A4A756D70696E67EE
:100C700020746F20626F6F746C6F616465722E2ECA
:100C80002E2000433E2000436C656172696E672030
:100C9000454550524F4D0A006565636F6E66696742
:100CA0003A0A005B735D004B6579626F6172642084
:100CB00073746172742E0A005B575D005B535D00B4
:100CC0005B525D005B445D005B435D0004033000EC
:100CD00000002203470061006C006C006900750091
:100CE0006D0020004B006500790062006F0061001C
:100CF000720064000000080341005300430000003C
:100D00000403090409025B00030100A0FA090400BE
:100D10000001030101000921110100012240000727
:100D200005810308000A090401000103000000090D
:100D3000211101000122BC000705820320000A09DD
:100D40000402000203000000092111010001222217
:100D5000000705830320000107050303200001129B
:100D600001100100000008EDFE60600100010203B7
:100D7000010631FF0974A1010975150026FF0095D0
:100D800020750881020976150026FF009520750858
:100D90009102C005010902A10185020901A1000516
:100DA000091901290515002501950575018102958F
:100DB00001750381010501093009311581257F95F0
:100DC000027508810609381581257F95017508810E
:100DD00006050C0A38021581257F950175088106E4
:100DE000C0C005010980A101850319012AB70015BA
:100DF0000126B700950175108100C0050C0901A1FD
:100E000001850419012AA002150126A00295017589
:100E1000108100C005010906A1018505050719E03B
:100E200029E71500250195087501810205071900BC
:100E300029EF1500250195F07501810205081901BA
:100E40002905950575019102950175039101C0056C
:100E5000010906A101050719E029E71500250195FB
:100E6000087501810295017508810105071900299E
:100E7000FF150026FF009506750881000508190179
:100E80002905950575019102950175039101C00031
:100E900011241FBECFEFDAE0DEBFCDBF04B603FEE4
:100EA00027C08091950290919602A0919702B091EF
:100EB00098028730904BA740B04BD1F41092950226
:100EC00010929602109297021092980214BE84B764
:100ED000877F84BF0FB6F894A895809160008861E1
:100EE00080936000109260000FBEE0E0F8E3099587
:100EF00011E0A0E0B1E0E6E7FAE502C005900D924E
:100F0000A039B107D9F722E0A0E9B1E001C01D92F4
:100F1000A539B207E1F70E94F7260C94D22C0C9465
:100F20000000FF93EF93E0919001F09191013097D1
:100F300009F00995EF91FF910895FC0185918030AA
:100F400011F0EFDFFBCF0895FF27E0E230E247FF2B
:100F50000CC0419597FF09C0EDE2609570958095B2
:100F60009095611D711D811D911D27FF02C0219566
:100F700030E350E2AA27660F771F881F991FAA1F28
:100F8000A41710F0A41B63955A95A9F7AA3008F08E
:100F9000A95FA05DAF93F39561157105810591057A
:100FA00041F7ED3211F4EF93F395F21718F43F93F4
:100FB000F395FBCF8F91B5DFFA95E1F70895E991AD
:100FC000F9918591803021F0853219F0AADFF9CFAF
:100FD000089520E0E89455915532C1F3503311F44F
:100FE000689455915A3348F4505390F3220F022ECF
:100FF000220F220F200D250FF4CF0EF42195899199
:101000009991533619F3533729F1533559F1BC01EE
:1010100088279927E8945C3621F4899199916894FE
:101020005591543639F446EF7EF077FF0DC08FEFBF
:101030009FEF0AC055374AE039F0583540E121F0BA
:10104000523642E009F00895FF93EF937DDFEF9170
:10105000FF91B7CFFF93EF93FC0181918030B9F3FB
:1010600060DFFBCFFF93EF9368DFF1CFDF93CF9388
:10107000CDB7DEB72596A3DFCF91DF910895089510
:1010800008950C948D09EF92FF921F93CF93DF93F5
:10109000CDB7DEB72B970FB6F894DEBF0FBECDBF2E
:1010A0001092CC001092CD0088E18093C90086E0B8
:1010B0008093CA0083E78093CE00CE0101967C0125
:1010C0008BE0D7011D928A95E9F7D7019E01245F35
:1010D0003F4FC70140E050E0BA011091C80017FD32
:1010E0000AC04F5F5F4F6F4F7F4F4131E7E25E07AE
:1010F0006105710590F31091CE00FC011193CF01B1
:10110000E217F30751F78B85803EB1F422E931E015
:10111000B701665F7F4F11968C911197F0E88F9F12
:10112000C00111244C91842BF901819391939F016B
:1011300012966A177B0779F70E94950981E02B9632
:101140000FB6F894DEBF0FBECDBFDF91CF911F91D8
:10115000FF90EF900895E82FF0E0EE0FFF1FEE569E
:10116000FE4F808191810895CF92DF92EF92FF929E
:101170000F931F93CF93DF938CEB90E00E949D071A
:1011800082E9E82E81E0F82ED0E0C0E097EBC92E8E
:1011900090E0D92E0EEA10E0DF93CF93DF92CF924A
:1011A0000E94360884EB90E00E949D07F701819130
:1011B00091917F010E940A1A9F938F931F930F931F
:1011C0000E9436088CEA90E00E949D0721968DB718
:1011D0009EB708960FB6F8949EBF0FBE8DBFC53060
:1011E000D105D1F6DF91CF911F910F91FF90EF9034
:1011F000DF90CF9008951092CC001092CD0088E13E
:101200008093C90086E08093CA000895519A599A44
:1012100080B3806380BB81B3806381BB08950E94EB
:101220003F080E94FB080C9406090C94400808959E
:10123000CF92DF92EF92FF926B017C010E94A51981
:10124000813089F0882359F0823091F0833091F019
:10125000C701B601FF90EF90DF90CF9008958D9A6F
:10126000599A8C9A03C08D9A599A8C98589AF0CFB3
:101270008D98F6CF8D9A5998F4CF81E0089581E04A
:1012800008950C943F0908950C9443091F93CF933C
:10129000DF9300D000D00F92CDB7DEB749835A83D9
:1012A0006B833091B10189819A8131111DC0662310
:1012B000B9F02223A9F00E940A18182F682F8981FB
:1012C0009A810E94B61769817A81812F0F900F90C1
:1012D0000F900F900F90DF91CF911F910C94090AFE
:1012E0000E94E217182FEFCF0E940A1869817A81B5
:1012F000EDCFFC01262F4081518162817381848171
:101300000C944609CF93DF93EC0160E00E947909C9
:10131000BE01DF91CF910C9444090E94171A8111EC
:1013200002C00E94B41A0C940F090C94150981E0B4
:1013300008950C949709CF93C82F0E9417098C2FFA
:10134000CF910C94990908950E9422130E94A30939
:101350002FEF84E39CE0215080409040E1F700C0F3
:1013600000000C94691C0F931F93CF93DF93EC0143
:1013700061E00E9479098C01BE010E944109882325
:1013800011F1BE01C8010E94810C8823E1F0BE0169
:10139000C8010E94C20C8823B1F0BE01C8010E949E
:1013A000E50D882381F08A81882341F101308CE5A5
:1013B000180779F00E3D8CE51807E9F001151C457A
:1013C000E9F40E94A40980E0DF91CF911F910F9171
:1013D000089590914802892F8E7F90FF81608093BD
:1013E000480280FF05C085E193E00E949D07EBCF96
:1013F00083E093E0FACF0E94B41AE5CFCE01DF91EB
:10140000CF911F910F910C943D0990E080E00895D9
:101410000895972F70E02EE0929F600D711D1124AA
:10142000FB0196E4899FE00DF11D1124EE0FFF1FD3
:10143000ED52FF4F859194910895FC01EE0FFF1F2F
:10144000EA5DFC4F859194910895CF93DF930E94BC
:10145000090A0E943A0BEC01811520E5920708F079
:1014600042C0811530E4930708F0BDC0883E910565
:1014700028F5803E910508F09DC0883A910588F4D2
:10148000853A910508F08FC08130910509F492C02A
:10149000009709F48FC0049708F08CC0D0E0C0E03A
:1014A00089C08F3B910508F489C0805C9109C03CDC
:1014B000D105A0F30E941D0AEC017CC08115904269
:1014C00050F4C11581E0D80708F074C0C03FD105C1
:1014D00028F3D0656FC0C11590E3D90708F079C033
:1014E000CE019F70E7CF811525E5920758F581154C
:1014F00034E5930708F0A6C0811542E5940750F43F
:10150000C11581E5D80708F471C0DC2FCC27C16F65
:10151000D06A50C0982F969596959E0123703327D8
:10152000C115D34508F07FC0C1E0D0E002C0CC0FA8
:10153000DD1F2A95E2F720E2929FC0011124C82BFB
:10154000D92B6FC0C11589E5D807A8F4C11598E556
:10155000D90708F07CC0C11526E5D20708F09ECF58
:101560008C2F0E94D10BC82FD0E0DC2FCC27CC27AA
:10157000DF71D0621FC0C1153AE5D30708F46CC013
:10158000CE0190568115904208F088CF8D2F8F7133
:101590000E94D10B90E0982F882788279F719C018B
:1015A0002C2BE901E6CFC55AD0E0CD5BDE4FC881D8
:1015B000D0E0D064CE01DF91CF910895C85AD0E039
:1015C000CC0FDD1FCB5EDE4F0990D881C02DD464D7
:1015D000F1CFCE019927D3FF03C0EC01D86CEACF3D
:1015E000EC01D06CE7CFDF70D06AE4CFCE01E4E04D
:1015F00096958795EA95E1F783702C2F2695269589
:10160000237090E2299F90011124382B8C2F837036
:10161000C1E0D0E002C0CC0FDD1F8A95E2F7C22BFB
:10162000D32BDC68C7CFC1E0D0E002C0CC0FDD1FF8
:101630002A95E2F730E2939FC0011124C82BD92BE1
:10164000DA68B8CFD82FCC27C46FD06AB3CFDC2FDD
:10165000CC27C06FD06AAECF8C2F8F700E94D10B79
:1016600034E0D695C7953A95E1F7CF709C2FEC0101
:10167000D069A0CF82389105B1F1B0F481339105E2
:1016800009F475C048F48932910509F469C08A32B9
:10169000910509F473C008958533910509F459C083
:1016A0008933910501F10895833E9105A9F138F43C
:1016B000803E9105F9F0823E910549F10895863EFC
:1016C0009105A9F1873E9105C9F1843E910519F56F
:1016D0002091870221FF1FC08091860284FD14C0E3
:1016E00087EE90E00895209186022370A1F080EEAD
:1016F00090E008952091860220FD47C03091870236
:1017000030FF09C024FF44C090E080E004C0209175
:10171000860222FDF7CF08952091860222FD3BC06C
:101720003091870230FDE3CF24FFF5CFEDCF20913C
:10173000860223FFF0CF24FDE7CFD2CF209186028F
:1017400023FD2CC03091870231FFEECF84EE90E074
:1017500008952091860225FFDECF89E290E008956A
:101760002091860225FFD7CF85E390E00895209150
:10177000860226FFD0CF8AE290E00895209186026B
:1017800026FFC9CF81E390E0089589E390E00895B2
:1017900083EE90E0089582EE90E0089586EE90E06A
:1017A00008959091860292FF06C0282F2871283054
:1017B000F9F4877F846093FF06C0282F28712831B1
:1017C000F1F4877E84612091870220FF06C0382FC4
:1017D00038713830D9F4877F816021FF06C0282F07
:1017E00028712831D1F4877E816194FD877E089528
:1017F000282F24712430F9F68B7F8860DCCF282FC6
:101800002471243101F78B7E8861DDCF382F31714F
:10181000313019F78E7F8860E0CF282F2171213178
:1018200021F78E7E8861E1CF0F931F93CF93DF93D3
:10183000C62FD42F022FFC0182818823C9F0609328
:101840009E010E941E1C90939D0180939C0180E24A
:101850008C0F883008F050C0C77081E001C0880F3D
:10186000CA95EAF7DF91CF911F910F910C947F10E9
:1018700010919E01161335C080919C0190919D019D
:101880000E94361C8F3A910560F5C0E2CD0F1D17FE
:10189000B9F080E2810F883040F4177081E001C018
:1018A000880F1A95EAF70E948610C83048F481E044
:1018B0009D2F977001C0880F9A95EAF70E947F10BC
:1018C000802F0E946C10C830B8F4D77081E001C03E
:1018D000880FDA95EAF7DF91CF911F910F910C9461
:1018E000861080E28C0F883038F4C77081E001C028
:1018F000880FCA95EAF7EFCFDF91CF911F910F9133
:1019000008959C01CB01233F4CE5340731F190F45D
:10191000283DFCE53F07E9F0293D4CE5340769F136
:10192000273D3C4579F426E241EE61EE0E94140C1D
:1019300080E00895253FFCE53F07B9F090F0263F91
:101940003C45B9F0FC0182818823D1F010929E01C0
:10195000089527E245EE65EEE9CF26E241EE60EE1E
:10196000E5CF27E245EE64EEE1CF26E241EE62EEFE
:10197000DDCF27E245EE66EED9CF28E241E0EBCF9E
:1019800081E00895CF93DF93EC01FB0182818823EE
:1019900009F419C1C230FCE5DF07C0F1C6319CE58E
:1019A000D90730F09E012A5F3C452930310570F59A
:1019B0000E942A1A9093870280938602C031ECE538
:1019C000DE0709F4CFC008F05BC0C8308CE5D8074B
:1019D00009F4B6C088F5C430ECE5DE0709F4A8C008
:1019E000C0F4C2308CE5D80709F49CC0809186020F
:1019F0008260C330DC4509F498C0809186029091E2
:101A000087020E94381A0E94221380E0DF91CF9152
:101A10000895809186028061C630ECE5DE0709F406
:101A200084C0809186028860C730DC4508F47DC0A0
:101A300080918602806279C0CC308CE5D80709F4A9
:101A400089C070F4809186028C60CA30ECE5DE07B4
:101A500009F46BC008F478C0809186028E7F65C05F
:101A6000CE308CE5D80709F479C0809186028B7F4F
:101A7000CF30DC4508F459C0809186028F7E55C076
:101A8000CB3FECE5DE0709F457C030F5C3318CE5F8
:101A9000D80709F46FC078F4C131ECE5DE0709F42A
:101AA00065C0C231DC4509F0A8CF0E9422138091A5
:101AB00086028F773AC0C5318CE5D80709F462C039
:101AC00008F476C0809187028160CA3FDC4509F046
:101AD00094CF8093870291CFCF3FFCE5DF0709F4D5
:101AE0004DC088F4809187028D7FCD3F9CE5D9075A
:101AF00081F3809187028E7FCE3FDC4550F3809149
:101B000087028360E6CFC130FDE5DF0709F459C0E5
:101B100008F444C080E0C230DD4509F06ECF0E9479
:101B2000B61A6BCF8091860281608093860265CF62
:101B3000809186028460F9CF809187028260C9CF4C
:101B4000809186028064F1CF0E94221380918602E8
:101B50008068EBCF809186028D7FE7CF80918602EF
:101B6000877FE3CF809186028F7DDFCF80918602D1
:101B70008F7BDBCF80918602837FD7CF80918702D6
:101B80008C7FA7CF8091860282FB992790F921E074
:101B9000922790FB82F990FB83F9C7CF809187024F
:101BA000982F909591708E7F892B90FB81F991CF22
:101BB0000E94221390918602892F97FB87F9805803
:101BC000B4CF81E0ACCF81E021CFCF93DF93EB01A5
:101BD00086319C4511F50E94C4189A81992399F089
:101BE0008A7A91E009F490E090939F01811109C0F5
:101BF00089E20E947A180E941F1980E0DF91CF913C
:101C0000089585E3F6CF80919F01811104C089E298
:101C10000E948118F0CF85E3FBCF81E0EFCF909356
:101C2000A5018093A4010895E091A401F091A5017C
:101C3000309721F00190F081E02D099480E0089523
:101C4000EF92FF920F931F93CF93DF93EC01E091FC
:101C5000A401F091A501309709F446C080911401C8
:101C6000882341F08091860287FF04C088818983A0
:101C700085E088830280F381E02DCE010995809173
:101C8000480282FF31C080FF04C08EE293E00E94D0
:101C90009D0710E000E088E2E82E83E0F82E8091B6
:101CA000480280FF0EC0FE01E00FF11F80811F92ED
:101CB0008F93FF92EF920E9436080F900F900F9033
:101CC0000F900F5F1F4F0830110549F780914802B0
:101CD00080FF0AC086E293E0DF91CF911F910F91C0
:101CE000FF90EF900C949D07DF91CF911F910F9182
:101CF000FF90EF900895E091A401F091A501309735
:101D000039F022E0DC012C930480F581E02D099468
:101D100008952091A2013091A3012817390771F08D
:101D20009093A3018093A201E091A401F091A501F9
:101D3000309721F00680F781E02D099408952091D5
:101D4000A0013091A1012817390771F09093A101EA
:101D50008093A001E091A401F091A501309721F0BA
:101D60000084F185E02D0994089585B7806885BFCA
:101D700085B7806885BF0895089508950C94BC0EBA
:101D800008950C94C00E0E94B50E0E94BD0E0C94D6
:101D9000BE0E81E008950C94C90E0E94151C0E948D
:101DA00041080E947A1C0C94C10ECF93C82F8091D9
:101DB000480282FF1EC080FF1CC087E493E00E949F
:101DC0009D078091480280FF14C01F92CF9382E448
:101DD00093E09F938F930E943608809148020F9062
:101DE0000F900F900F9080FF04C080E493E00E945A
:101DF0009D078C2FCF910C949B097F928F929F927D
:101E0000AF92BF92CF92DF92EF92FF920F931F9308
:101E1000CF93DF93CDB7DEB72A970FB6F894DEBF26
:101E20000FBECDBF0E9443080E94CB0E882309F449
:101E300071C047EAA42E41E0B42E10E000E0702EFD
:101E4000802F0E94AB086C01F501819091905F0199
:101E50008816990609F458C08091480281FD0E94B5
:101E6000B40880E0EE24E394F12C8C249D249401AA
:101E70002E213F21232B09F441C08E837F82CE2067
:101E8000DF2081E0CD2809F480E088870E941E1CB5
:101E90008160782F9A8789874E815F8168858A85DE
:101EA0000E94AF0F000F111FF801E955FE4F80810E
:101EB0009181E826F926F182E0820E94891E0E9423
:101EC000140E9091A6018917B1F10E94140E80930F
:101ED000A6012A960FB6F894DEBF0FBECDBFDF91E4
:101EE000CF911F910F91FF90EF90DF90CF90BF9017
:101EF000AF909F908F907F900C94D50E8F5FEE0CDB
:101F0000FF1C8E3009F0B3CF0F5F1F4F0530110556
:101F100009F095CF8FEF89838A831B820E941E1C54
:101F20008160782F9D838C8349815A816B818D815B
:101F30000E94AF0FC2CF2A960FB6F894DEBF0FBE35
:101F4000CDBFDF91CF911F910F91FF90EF90DF9068
:101F5000CF90BF90AF909F908F907F900895CF9338
:101F6000DF93CDB7DEB72B970FB6F894DEBF0FBE69
:101F7000CDBF4F83588769877A878B871E821D82E2
:101F800085E0FE013796DE01119601900D928A954B
:101F9000E1F70E94A718882319F082E00E948819AF
:101FA0000E948E1881110E94111949815A816B81FA
:101FB0007C818D819E812B960FB6F894DEBF0FBE7B
:101FC000CDBFDF91CF910C949815FC018081918158
:101FD0000C944C18CF93C82F882309F44CC08CEF75
:101FE0008C0F813AC8F48C2F0E946723811143C063
:101FF0006C2F80910001909101010E94CF1A8823DB
:1020000029F08C2F0E9481180E941F198C2F0E948A
:102010007A18CF910C941F1980E28C0F883048F405
:10202000C77081E001C0880FCA95EAF70E94C718FF
:10203000F0CFEBE5EC0FE33040F4F0E0EC58FE4F6E
:10204000808190E0CF910C94890EE8E5EC0FE731A8
:1020500050F4F0E0EE0FFF1FEA5BFE4F80819181AC
:10206000CF910C949F0EC03F30F08C2F0E94151D15
:10207000CF910C94FC1DCF910895882361F19CEFC2
:10208000980F913A20F40E9481180C941F1990E245
:10209000980F983050F4877091E001C0990F8A959D
:1020A000EAF7892F0E94CD18F0CF9BE5980F933067
:1020B00020F490E080E00C94890E98E5980F973119
:1020C00020F490E080E00C949F0E803F20F00E946E
:1020D0007D1D0C94FC1D0895CF93C82F0E94EA0F1C
:1020E000C93349F42FEF87EE93E0215080409040B0
:1020F000E1F700C000008C2FCF910C943D10882395
:1021000021F00E94C7180C941F190895882321F00C
:102110000E94CD180C941F190895BF92CF92DF92A0
:10212000EF92FF920F931F93CF93DF936C01D62F03
:10213000C72FFC01058102950F70128111110E94B9
:10214000E4180E94BD18E82E882371F01123B1F025
:1021500080E28D0F883090F082E00E9488190E9402
:10216000BD1891E0E82EE926BC2EB2949FE0B9227A
:10217000EB2DF0E0EC52F34D0C94762CE12CF4CFE7
:102180000C2F0F70C07F11F00295007F1123A9F072
:10219000002359F080E28D0F883010F0D11109C072
:1021A000802F0E94C7180E941F198D2F0E94EA0FCE
:1021B00014C0802F0E94D718F6CF8D2F0E943D109B
:1021C000002359F080E28D0F883010F0D1112CC01F
:1021D000802F0E94CD180E941F192B2D2850330BE1
:1021E0002430310520F40E94140E0E949B09EE2039
:1021F00009F4D5C10E94A31880FDD1C1F601128255
:102200000E949D180E941A17C6010E94F0120E9497
:102210009D18DF91CF911F910F91FF90EF90DF906C
:10222000CF90BF900C943B17802F0E94DD18D3CF26
:10223000FC2FFF70FF2EC07FC03219F0F29480EFA8
:10224000F822DD2369F0D13049F1112391F1002307
:1022500051F1F601858180FFA8CF8F70858323C05F
:10226000112381F0011106C00E94F7188F290E94E6
:102270007F10B3CF0130C1F70E94F7188F290E9459
:10228000FD18ABCF011106C00E9411198F2D0E94BD
:102290008610A3CF013009F4A0CFF6CF112329F087
:1022A000063008F09ACF8F2DE2CF053008F095CF99
:1022B000EDCF002359F3D93349F4FFEF27EE33E094
:1022C000F15020403040E1F700C000008D2F0E9407
:1022D0003D1083CF8C2F86958695837069F0813071
:1022E00009F07BCF8D2F9C2F9370111102C090E0CD
:1022F00080E00E949F0E71CF8D2F9C2F9370111143
:1023000002C090E080E00E94890E67CF112309F19E
:10231000D53F99F0D63FB9F0D43F49F4809180027F
:1023200090918102816090938102809380028D2F31
:102330000E94151D0E94FC1D50CF8091800290913B
:1023400081028260F0CF809180029091810284604E
:10235000EACFD53F89F0D63FA9F0D43F49F4809128
:102360008002909181028E7F9093810280938002FF
:102370008D2F0E947D1DDECF809180029091810281
:102380008D7FF2CF80918002909181028B7FECCF84
:102390008C2F837009F041C011111FCF4D2F429532
:1023A00046954770440F440F0D2F0F7010E030E03A
:1023B00020E0042E04C0000F111F221F331F0A94B7
:1023C000D2F760E070E0CB01D4FF0FC06FE070E0A7
:1023D00080E090E004C0660F771F881F991F4A9520
:1023E000D2F76095709580959095C695C695C37007
:1023F000602B712B822B932BC23049F058F4C130E3
:1024000019F00E94CE16E9CE0E94BC16E6CE0E94BC
:10241000E016E3CE0E94BA16E0CE8695112311F0A5
:102420008C2F8170882309F4D8CE4D2F4295469584
:102430004770440F440F0D2F0F7010E030E020E084
:10244000042E04C0000F111F221F331F0A94D2F75D
:1024500060E070E0CB01D4FF0FC06FE070E080E07F
:1024600090E004C0660F771F881F991F4A95D2F726
:102470006095709580959095C695C695C370602BB4
:10248000712B822B932BC23049F058F4C13019F0D4
:102490000E949117A2CE0E947F179FCE0E94A31781
:1024A0009CCE0E94F41699CECF70112329F08C2F68
:1024B0000E941A178D2FDBCE8D2F0E9486108C2F35
:1024C0000E943B178ACED23F89F160F4D03FC9F019
:1024D000D13F29F1112309F442C0011166CE8C2F9E
:1024E0008F7121C0D33F39F1D43FA1F7112369F196
:1024F000CF718C2F0E941A1763E08C2F0E946919EC
:102500006CCE112341F0053008F067CE8C2F8F710F
:102510000E945E1762CE063008F05FCEF7CF8C2F98
:102520008F71112369F20E941A1757CE8C2F8F7169
:102530001123C9F3C5CF112329F08C2F8F710E946D
:1025400005174BCE0E94001748CE81E00E948819E3
:10255000023008F442CE82E00E9488193ECE002369
:1025600059F0D93309F0B2CE8FEF97EEE3E0815006
:102570009040E040E1F7A8CE8C2F8F71A1CF4C2F77
:102580004F706D2FC6010E94050A0E94321625CE9B
:102590004C2F4F706D2FC6010E94080A1ECEDF918E
:1025A000CF911F910F91FF90EF90DF90CF90BF9050
:1025B00008950F931F93CF93DF93EC016881798186
:1025C0008A810E9456188C010E94B5170E94B91684
:1025D000B801CE01DF91CF911F910F910C948D1016
:1025E000CF93DF93EC018B819C81892B29F088812B
:1025F000998189238F3F19F4DF91CF910895CE01FE
:102600000E94B3098823C1F3CE010E94D912CE01E2
:10261000DF91CF910C9482090E94E4180E94F41873
:102620000E941F190E94A31F0E94FC1D90E080E0E1
:102630000E94890E90E080E00C949F0E0E94881802
:102640000C940C130E94D4180C941E13E92FE295DD
:10265000EF70E250EE3070F4F0E0EC51F34D0C947A
:10266000762C803F19F020F4883E20F481E0089514
:10267000843FE1F380E00895883EC0F3813FD1F7C5
:10268000F5CF93FB882780F908950E944C180C948D
:102690002613CF93DF9300D000D00F92CDB7DEB7D3
:1026A0000F900F900F900F900F90DF91CF910895A2
:1026B000CF93DF9300D000D000D0CDB7DEB7269601
:1026C0000FB6F894DEBF0FBECDBFDF91CF91089556
:1026D0001F93CF93DF93C091B20116E08091B301B5
:1026E0008C1304C0DF91CF911F910895D0E01C9FFF
:1026F000F0011D9FF00D1124EC54FE4F40815181DB
:1027000062817381848195810E9458132196C770DC
:10271000E5CF4091E4015091E5016091E6017091AF
:10272000E7018091E8019091E9010C9458131F93FF
:10273000CF93DF938091E901807FA9F48091E60136
:10274000882389F08091B201C091B3016091E401C6
:102750007091E501A091E701B091E801D62FD72350
:1027600016E0C81304C0DF91CF911F91089590E047
:10277000109711F0DF3F19F401968770F2CF189F80
:102780009001199F300D1124F901EC54FE4F418145
:102790004713F2CF40814613EFCF42814111ECCF76
:1027A000438154814A1B5B0B4F3A510528F78091B6
:1027B000E9018F7080618093E901F901E754FE4FD0
:1027C00080818F708061808384EE91E00E94F0129E
:1027D000DF91CF911F910C946813AF92BF92CF926B
:1027E000DF92EF92FF920F931F93CF93DF93CDB7BA
:1027F000DEB761970FB6F894DEBF0FBECDBF8C0178
:1028000085E0F801DE011D9601900D928A95E1F7B1
:10281000F80140815181E28084EEC82E81E0D82EFB
:102820006091E7017091E8016115710509F461C1DA
:102830009091E4012091E501892F82238F3F09F4D3
:1028400058C1A380B480F090E601F501E61BF70BB8
:10285000FF2009F4FCC08091E901382F307FEF3A66
:10286000F10508F0B2C0311179C0FE2C251323C048
:10287000941321C0E1101FC08F7080618093E90123
:102880000E948913C6010E94F0128091E901F801AB
:1028900085838F2D61960FB6F894DEBF0FBECDBF36
:1028A000DF91CF911F910F91FF90EF90DF90CF902C
:1028B000BF90AF900895AB2829F0842F85238F3FD8
:1028C00009F033C180E0F82FF170DF2E80FF3CC0AB
:1028D0008091B2012091B30136E0821315C04D877B
:1028E0005E878D859E850E944C18292F22952F701A
:1028F0002230F0F0243018F59F70F1F0F801958146
:10290000907FD1F4D12C1EC090E0389FF001399F08
:10291000F00D1124EC54FE4F6181651306C06081F7
:10292000641303C062816E110FC001968770D5CF0A
:102930009F7011F0882331F3805E883018F3C8014E
:102940000E94F012FD2CA5CFEE2009F4A2CF8091B9
:10295000E90181608093E901F12C9BCF251306C02A
:10296000941304C0F801EE2009F48DC04D875E87F2
:102970008D859E850E944513882319F1EE2009F16B
:102980008091E901803270F02091E4013091E501FD
:1029900038872F831986BB86AA868C87CE01079637
:1029A0000E94F01286E0F801A4EEB1E001900D92D1
:1029B0008A95E1F70E9497130E948913FF24F394EC
:1029C00068CFC8010E94F012F9CF311113C07A2DDF
:1029D000B98AA88A6E2D89890E94491384EE91E0F4
:1029E0000E94F01286E0F60111928A95E9F70E94A2
:1029F0008913B2CF25130FC094130DC0E1100BC083
:102A0000F8018583C8010E94F01286E0F601119258
:102A10008A95E9F73ECF4D875E878D859E850E941A
:102A20004513882371F2EE2061F28091E901803232
:102A300008F4B8CF2091E4013091E5013A8329836D
:102A40001B82BD82AC828E83CE010196A9CFEF3A64
:102A5000F10508F041C0FE2CEE2009F4B2CF251399
:102A60002AC0941328C08091E90180FD1BC0982FD3
:102A7000907FC1F0F8018583903F31F0982F907FCF
:102A8000905F8F70892B8583C8010E94F01286E0C9
:102A9000F801A4EEB1E001900D928A95E1F70E9451
:102AA0008913F7CE86E0F801A4EEB1E001900D9213
:102AB0008A95E1F7EECE4D875E878D859E850E94D3
:102AC000451381116FCF8091E90181608093E90105
:102AD000C8010E94F012DDCE7A2DB98AA88A6E2D27
:102AE00089890E94491386E0F60111928A95E9F7D7
:102AF000D6CFEE2009F465CF4D875E878D859E8504
:102B00000E944513F82E882309F45BCF86E0F80174
:102B1000A4EEB1E001900D928A95E1F784EE91E088
:102B20000E94E50F0E949713BACF81E08E25CBCE8D
:102B30001F93CF93DF93CDB7DEB72C970FB6F894E2
:102B4000DEBF0FBECDBF4F83588769877A878B87DB
:102B50009C87CE0107960E94ED13882369F08A8531
:102B60009B85892B39F04F815885842F85238F3F92
:102B700009F071C016E05FC086E0FE013796DE0105
:102B8000119601900D928A95E1F78A859B85892B94
:102B900089F388859F8189238F3F61F32091B30159
:102BA00030E0C9010196877099274091B20148171A
:102BB000190671F40E9422131092B3011092B2010F
:102BC00086E0E4EEF1E0DF011D928A95E9F7D2CFCD
:102BD00096E0929FD001939FB00D1124AC54BE4F4C
:102BE000FE01319601900D929A95E1F78093B30121
:102BF0000E946813BFCF819FC00111248C549E4F47
:102C00000E94ED138823E9F0E091B2011E9FF001CC
:102C10001124EC54FE4F4081518162817381848183
:102C200095810E9458138091B20190E001968770BF
:102C300099278093B2018091B2019091B3018913D9
:102C4000DACF2C960FB6F894DEBF0FBECDBFDF9162
:102C5000CF911F91089569857A858B859C850E9407
:102C6000581388CFEF92FF920F931F93CF93DF9368
:102C70008C01892B81F0F12CEE24E394E80121965C
:102C8000F8018491843770F4843008F05FC081309B
:102C9000B1F08230A1F1DF91CF911F910F91FF90A0
:102CA000EF900895853709F44CC008F43DC09CE7C7
:102CB000980F903780F78F770E943D1049C00E5FC4
:102CC0001F4FFE01849190E2980F983060F4877056
:102CD000FE2D01C0FF0F8A95EAF78F2F0E94E7189B
:102CE0000E941F1902C00E94EA0F8F2D815030F2FE
:102CF000EFE9FFE03197F1F700C00000F7CF0E5F7A
:102D00001F4FFE01849190E2980F983050F4877025
:102D1000FE2D01C0FF0F8A95EAF78F2F0E94ED1854
:102D2000DFCF0E943D10E1CF0E5F1F4FFE01C49127
:102D3000C150D8F28FE99FE00197F1F700C0000081
:102D4000F7CF0E5F1F4FFE01F490CFCF0E94EA0F26
:102D50008E01CBCF08950C94AA160E94AB166093F7
:102D60001B0270931C0280931D0290931E020C9410
:102D70000C1308950C94AD160F931F9300911B0232
:102D800010911C0220911D0230911E02602B712BAC
:102D9000822B932B1F910F910C94AD160F931F93C1
:102DA00000911B0210911C0220911D0230911E0205
:102DB00060237123822393231F910F910C94AD16EE
:102DC0000F931F9300911B0210911C0220911D0272
:102DD00030911E0260277127822793271F910F9140
:102DE0000C94AD160C9418090E94F2166093170209
:102DF000709318028093190290931A020C940C138A
:102E000060E070E0CB010C94F4160F931F9341E047
:102E100050E060E070E08A019B0104C0000F111FC8
:102E2000221F331F8A95D2F7C901B8011F910F9154
:102E30000C94F4160F931F9341E050E060E070E0B3
:102E400004C0440F551F661F771F8A95D2F78091E3
:102E5000170290911802A0911902B0911A028A01EA
:102E60009B01082B192B2A2B3B2BC901B8011F9161
:102E70000F910C94F4160F931F9341E050E060E023
:102E800070E004C0440F551F661F771F8A95D2F764
:102E9000CB01BA01609570958095909500911702CD
:102EA000109118022091190230911A0260237123A7
:102EB000822393231F910F910C94F4160F931F9369
:102EC00041E050E060E070E004C0440F551F661F11
:102ED000771F8A95D2F78091170290911802A091DE
:102EE0001902B0911A028A019B01082719272A2783
:102EF0003B27C901B8011F910F910C94F4160F9351
:102F00001F9300911702109118022091190230911D
:102F10001A02602B712B822B932B1F910F910C9413
:102F2000F4160F931F93009117021091180220912D
:102F3000190230911A0260237123822393231F9177
:102F40000F910C94F4160F931F9300911702109198
:102F500018022091190230911A02602771278227E6
:102F600093271F910F910C94F41608952EE0929FD1
:102F7000800D1124982F977041E001C0440F9A955D
:102F8000EAF786958695869595E0899FF00111244C
:102F9000E651FE4F90E080E070E05191DF01119723
:102FA0009B01082E02C0369527950A94E2F72170FE
:102FB00021952527242325272C93019685309105DB
:102FC00061F708952EE0929F800D1124982F97703D
:102FD00086958695869525E0829FF0011124E6511D
:102FE000FE4F50E040E080E0219130E0092E02C029
:102FF000369527950A94E2F721703327042E01C0F5
:10300000220F0A94EAF7822B4F5F5F4F453051053C
:1030100059F70895BF92CF92DF92EF92FF920F93EC
:103020001F93CF93DF938C01C0901702D0901802AA
:10303000E0901902F0901A0280911B0290911C02FC
:10304000A0911D02B0911E02C82AD92AEA2AFB2AA1
:10305000CFE1D0E0BC2ED701C6010C2E04C0B6953E
:10306000A795979587950A94D2F780FD0EC0219772
:1030700088F7B12C8B2DDF91CF911F910F91FF908D
:10308000EF90DF90CF90BF900895B8018C2F0E94F1
:10309000250A019761F3EECFCF93DF93EC010E94F5
:1030A0000A18BE01DF91CF910C94250A1F93CF938C
:1030B000DF93EB019091B101992331F0CB01DF91C6
:1030C000CF911F910C944C18882379F0CB010E946A
:1030D0000A18182F682FCE010E94B617BE01812F43
:1030E000DF91CF911F910C94250ACB010E94E2172A
:1030F000182FF4CF682F80910001909101010C945A
:10310000711B682F80910001909101010C947C1B30
:1031100080910001909101010C94871B0E941E1C5C
:103120002091220230912302821B930B9C0181E0AB
:10313000243F314008F480E0089580912102859574
:1031400085958595089580912102877008950E9444
:103150001E1C20911F0230912002821B930B843F82
:10316000914048F08091210282FB882780F991E00C
:1031700089278170089580E0FCCF9091210297709B
:1031800081E009F480E008958091470208959091CC
:103190004702892B809347020895809590914702BA
:1031A00098239093470208951092470208959091B2
:1031B0004602892B8093460208958095909146029D
:1031C0009823909346020895109246020895909194
:1031D0004502892B80934502089580959091450280
:1031E0009823909345020895109245020895809186
:1031F0002402089508950C94FA18CF93C82F809153
:1032000024028C1761F00E941E1C9093230280936D
:103210002202C09324028C2FCF910C94FB18CF91E3
:10322000089580912402882349F01092240210927C
:1032300023021092220280E00C94FB180895E09182
:103240000001F0910101809147028083E09100012B
:10325000F0910101808190914602892B8083E09159
:103260000001F0910101808190914502892B8083BA
:1032700080912402882321F10E948E18882371F006
:103280008091480280FF08C08AE593E09F938F9366
:103290000E9436080F900F900E941119E0910001D2
:1032A000F0910101808190912402892B808380918B
:1032B0000001909101010E94BB1A81110E94111915
:1032C00080910001909101010C94200E08950C94BE
:1032D000661998E0899F90011124622B6093210266
:1032E0000E941A170E941E1C9093200280931F02B6
:1032F000809121028595859585950C94671910928A
:1033000021021092200210921F0280E00C94671993
:10331000909121028095892380932102282F277084
:1033200071F4282F082E000C330B9217130639F076
:103330008595859585950E943B170C947F19089576
:1033400090939101809390010895CF92DF92EF9234
:10335000FF926C01EE24FF2420E0C114D104E104AB
:10336000F10419F0C701B60120E1C72ED82EE92ECD
:10337000FF24C114D104E104F10419F0285FC7014E
:10338000B6016B017C0154E0F694E794D794C7949E
:103390005A95D1F7C114D104E104F10419F02C5F5E
:1033A000C701B6016B017C0142E0F694E794D79423
:1033B000C7944A95D1F7C114D104E104F10419F07E
:1033C0002E5FC701B6019695879577956795672B10
:1033D000682B692B09F02F5F822FFF90EF90DF9011
:1033E000CF900895829590E09C01220F331F220F09
:1033F000331F2C7C95958795959587958373282BFE
:1034000030E0C901880F991F8A7A3595279525756F
:10341000822B0895CF93DF93D92F0E94F219C82FE2
:103420008D2F0E94F2199C2FDF91CF91089590E08B
:1034300080E00E94982C21E08C3E9E4F09F020E015
:10344000822F089582E090E00C94902C83E090E02D
:103450000C94902CCF9384E090E00E94902CC82F85
:1034600081E290E00E94902C982F8C2FCF910895AC
:10347000CF93C92F682F84E090E00E949E2C6C2F80
:1034800081E290E0CF910C949E2CAB01BC018FE0C7
:1034900090E00C94B02CAB01BC0183E190E00C9463
:1034A000B02C60E070E0CB010C944B1A60E070E04F
:1034B000CB010E94451A0C94511A6CEE7EEF90E0FD
:1034C00080E00E94BC2C60E082E090E00E949E2C94
:1034D00060E083E090E00E949E2C10921B0210920C
:1034E0001C0210921D0210921E0260E084E090E027
:1034F0000E949E2C60E081E290E00E949E2C60E0A1
:1035000085E090E00E949E2C60E086E090E00E94C2
:103510009E2C6FEF87E090E00E949E2C40E050E0F0
:10352000BA0188E090E00E94B02C60E08DE090E06D
:103530000E949E2C40E050E0BA0188E190E00E9499
:10354000B02C60E087E190E00E949E2C40E050E0CB
:10355000BA018CE190E00E94B02C60E080E290E043
:103560000E949E2C0C94561A0C945D1A682F8EE0C3
:1035700090E00C949E2CFC013296809114018823DB
:1035800021F0809186029EE187FF96E080E09150D5
:1035900008F4089521912223D1F38F5FF8CF662399
:1035A00001F1209114012223F1F02091860227FFDE
:1035B0001AC0462F4695469546954E3190F4677051
:1035C00021E030E002C0220F331F6A95E2F7840F3A
:1035D000911DFC01828190E02823392381E0232B77
:1035E00069F480E00895FC0132960896219126172F
:1035F00021F0E817F907D1F7F4CF81E008959C0195
:10360000FC0132969FEF80E04191461751F09F3FB9
:1036100019F4411101C0982F8F5F8630A9F79F3FA1
:1036200009F40895290F311D97FD3A95F901628338
:103630000895FC01329608962191261303C0DF01FC
:1036400011971C92E817F907B9F70895E62FE69548
:10365000E695E695EE3170F4E80FF92FF11D6770ED
:1036600021E030E001C0220F6A95EAF78281822BC7
:10367000828308958091480280FF0CC01F926F934F
:103680008AE893E09F938F930E9436080F900F90E3
:103690000F900F900895E62FE695E695E695EE31AA
:1036A00078F4E80FF92FF11D677021E030E001C0D8
:1036B000220F6A95EAF720958281282322830895B4
:1036C0008091480280FF0CC01F926F938CE693E0BC
:1036D0009F938F930E9436080F900F900F900F903A
:1036E000089520911401222329F02091860227FDBC
:1036F0000C94261B0C94FF1A20911401222329F00C
:103700002091860227FD0C944B1B0C94191BFC0185
:10371000329680911401882351F08091860287FFB0
:1037200006C08EE1DF011D928A95E9F7089586E0D3
:10373000F9CF089508950C949A1B0E949B1B8091C9
:103740008C02843049F11092490288E190E020E433
:103750000FB6F894A895809360000FBE2093600088
:1037600080E00E949B090E949B1B83B7817F84603D
:1037700083BF83B7816083BF7894889583B78E7F3A
:1037800083BF0FB6F894A8958091600088618093FC
:103790006000109260000FBE08950895CF930E94BC
:1037A000991B0E9443080E94CD1BC0E08C2F0E94F1
:1037B000AB08892B31F4CF5FC530C1F780E0CF91E2
:1037C000089581E0FCCF08950C94E31B0E9422131E
:1037D0000E94140E0E949B090C94E41B1F921FB6BA
:1037E0001F9211248F939F93AF93BF9380914902AF
:1037F000811113C08091820290918302A091840272
:10380000B09185024196A11DB11D809382029093D3
:103810008302A0938402B0938502BF91AF919F91E0
:103820008F911F901FBE1F90189582E084BD93E07A
:1038300095BD9AEF97BD80936E0008952FB7F894C9
:103840008091820290918302A0918402B0918502BE
:103850002FBF08952FB7F894609182027091830270
:1038600080918402909185022FBF08959C014FB7EB
:10387000F8948091820290918302A0918402B09189
:1038800085024FBF821B930B089578941F921FB639
:103890001F9211248F939F93AF93BF9380918202C5
:1038A00090918302A0918402B09185020196A11D9E
:1038B000B11D8093820290938302A0938402B093FF
:1038C0008502BF91AF919F918F911F901FBE1F9056
:1038D000189587E797E7909301088093000888E19F
:1038E0009AE00FB6F894A895809360000FBE90936D
:1038F0006000FFCF0E94171A811102C00E94B41A03
:103900000E94221A809348020E942A1A90938702EA
:10391000809386020E94261A682F70E090E080E073
:103920000C94BA168091510280FF12C06091070179
:1039300085E0689FB0011124759567957595679529
:1039400060387105A8F561157105A1F1862F0895FC
:1039500081FF09C06091070185E0689FB0011124D3
:1039600075956795EDCF6091070182FD0AC0809142
:1039700050028823D1F090910601609107018917C8
:1039800028F085E0689FB0011124DACF869FB0014E
:10399000112485E0869F9001879F300D1124692FA7
:1039A00070E0C9010E94622CCBCF65E070E0CECF01
:1039B0008FE7089581E008958091510280FF0CC047
:1039C0006091030170E07595679575956795611530
:1039D000710549F1862F089581FF06C060910301AA
:1039E00070E075956795F3CF6091030182FD0BC080
:1039F000909150029923A1F06091020180910301FE
:103A0000961738F0682F70E06038710500F38FE783
:103A10000895899FC001112470E00E94622CF4CFA8
:103A200061E070E0D7CF81E00895803F31F40E94DB
:103A3000921C8195809355020895813F19F40E944C
:103A4000921CF8CF823F31F40E94921C81958093A2
:103A500054020895833F19F40E94921CF8CF893FC5
:103A600029F40E94DC1C8093560208958A3F21F4B9
:103A70000E94DC1C8195F7CF8B3F31F40E94DC1C47
:103A800081958093570208958C3F19F40E94DC1CA5
:103A9000F8CF843F31F480915302816080935302C8
:103AA0000895853F21F4809153028260F7CF863FCD
:103AB00021F4809153028460F1CF873F21F48091FB
:103AC00053028860EBCF883F21F4809153028061DC
:103AD000E5CF8D3F31F48091510281608093510296
:103AE00008958E3F21F4809151028260F7CF8F3F7D
:103AF000B9F7809151028460F1CF90915402803FD8
:103B000041F48091550287FD10925502992371F07E
:103B10000895813F29F4809155021816ACF3F6CF31
:103B2000823F81F497FFF2CF1092540280915502A8
:103B300090915602892B90915702892B49F7109248
:103B400050020895833F19F4191674F3DFCF893FAB
:103B500039F4809156021816CCF610925602D6CF40
:103B60008A3F29F48091560287FFD0CFF6CF8B3F52
:103B700039F48091570287FFC9CF10925702C6CF00
:103B80008C3F29F4809157021816BCF3BFCF843FB5
:103B900031F4809153028E7F80935302B7CF853FDB
:103BA00021F4809153028D7FF7CF863F21F48091DD
:103BB00053028B7FF1CF873F21F480915302877F9F
:103BC000EBCF883F21F4809153028F7EE5CF8D3F6C
:103BD00031F4809151028E7F8093510297CF8E3FB6
:103BE00021F4809151028D7FF7CF8F3F09F08ECF66
:103BF000809151028B7FF0CF8091480283FF7EC07D
:103C00008FEC93E00E949D07809153021F928F9347
:103C10008AEC93E09F938F930E94360888EC93E0A0
:103C20000E949D0780915402282F082E000C330B10
:103C30003F938F9385EC93E09F938F930E94360878
:103C400083EC93E00E949D0780915502282F082E57
:103C5000000C330B3F938F9380EC93E09F938F93F3
:103C60000E9436088EEB93E00E949D0780915602D9
:103C7000282F082E000C330B3F938F938BEB93E090
:103C80009F938F930E94360889EB93E00E949D07D3
:103C900080915702282F082E000C330B3F938F93EF
:103CA00086EB93E09F938F930E94360883EB93E01B
:103CB0000E949D07809150021F928F9380EB93E0AA
:103CC0009F938F930E9436088EEA93E00E949D078F
:103CD000809151021F928F938BEA93E09F938F9371
:103CE0000E94360888EA93E00E949D078DB79EB730
:103CF0004C960FB6F8949EBF0FBE8DBF82E592E042
:103D00000E947B0E0E941E1C90934F0280934E02D5
:103D10000895CF93DF9300D000D000D0CDB7DEB7A9
:103D200086E0E2E5F2E0DE01119601900D928A95BF
:103D3000E1F78091540290915502892B81F0809196
:103D40004C0290914D020E94361CAC0190915002A1
:103D5000992331F1809108018417150670F1809143
:103D6000560290915702892B91F080914A029091CE
:103D70004B020E94361CAC0190915002992309F429
:103D800078C0809104018417150608F480C0269637
:103D90000FB6F894DEBF0FBECDBFDF91CF9108956F
:103DA000209109018AE0289F9001112424173507EA
:103DB000B0F69F5F9093500202C09F3FD1F71092E0
:103DC00056021092570280915402181624F40E9451
:103DD000921C809354028091540287FF05C00E9478
:103DE000921C81958093540280915502181624F4F8
:103DF0000E94921C809355028091550287FF05C056
:103E00000E94921C81958093550230915402332375
:103E1000A1F020915502222381F045EB3403C0012B
:103E200011249923F1F09093540245EB240390015F
:103E300011243323D1F0309355020E94FC1D809150
:103E40004E0290914F0290934D0280934C0286E077
:103E5000FE013196A2E5B2E001900D928A95E1F75C
:103E60007ECF81E080935402E0CF81E080935502C1
:103E7000E4CF209105018AE0289F900111242417A6
:103E8000350708F084CF9F5F9093500202C09F3F98
:103E9000D1F71092540210925502809156021816D2
:103EA00024F40E94DC1C809356028091560287FF06
:103EB00005C00E94DC1C81958093560280915702B8
:103EC000181624F40E94DC1C80935702809157023C
:103ED00087FF05C00E94DC1C8195809357023091BA
:103EE00056023323A1F020915702222381F045EBA3
:103EF0003403C00111249923F1F09093560245EB4D
:103F00002403900111243323D1F0309357020E94EF
:103F1000FC1D80914E0290914F0290934B02809332
:103F20004A0286E0FE013196A2E5B2E001900D92D0
:103F30008A95E1F72CCF81E080935602E0CF81E0B3
:103F400080935702E4CF86E0E2E5F2E0DF011D92C4
:103F50008A95E9F71092500210925102089582EF6B
:103F600095E00E949D071F9281E08F931F9285E04C
:103F70008F9384EA95E09F938F930E9436080F9069
:103F80000F900F900F900F900F900895833009F4C9
:103F900045C028F4813061F0823049F108958530C0
:103FA00009F46AC008F451C0863009F47CC0089551
:103FB00080910901482F460F5527551F4F3F510546
:103FC00094F4680F60930901809109011F928F9307
:103FD0008DED94E09F938F930E9436080F900F9081
:103FE0000F900F9008958FEF80930901EDCF80918E
:103FF0000801482F460F5527551F4F3F510554F4D0
:10400000680F60930801809108011F928F938BECD9
:1040100094E0E0CF8FEF80930801F5CF8091070106
:10402000482F460F5527551F4F3F510554F4680F31
:1040300060930701809107011F928F9388EB94E0B2
:10404000C9CF8FEF80930701F5CF80910601482FEC
:10405000460F5527551F4F3F510554F4680F609385
:104060000601809106011F928F9383EA94E0B2CFFC
:104070008FEF80930601F5CF80910301482F460F03
:104080005527551F4F3F510554F4680F60930301A6
:10409000809103011F928F938AE894E09BCF8FEF6A
:1040A00080930301F5CF80910201482F460F5527D9
:1040B000551F4F3F510554F4680F609302018091E2
:1040C00002011F928F938FE694E084CF8FEF80934D
:1040D0000201F5CF8330C9F128F4813061F08230DC
:1040E00019F10895853009F452C008F43FC08630B4
:1040F00009F45EC0089580910901681790F4861B49
:1041000080930901809109011F928F9380E694E0CA
:104110009F938F930E9436080F900F900F900F90EF
:10412000089510920901EECF80910801681750F4AC
:10413000861B80930801809108011F928F938EE463
:1041400094E0E6CF10920801F6CF8091070168173E
:1041500050F4861B80930701809107011F928F9373
:104160008BE394E0D5CF10920701F6CF8091060142
:10417000681750F4861B80930601809106011F92F8
:104180008F9386E294E0C4CF10920601F6CF80911F
:104190000301681750F4861B80930301809103018B
:1041A0001F928F938DE094E0B3CF10920301F6CF6E
:1041B00080910201681750F4861B80930201809160
:1041C00002011F928F9382EF93E0A2CF109202011F
:1041D000F6CFCF93C82F1F928F9387EF96E09F93D0
:1041E0008F930E94360861E070E080E090E004C0A8
:1041F000660F771F881F991FCA95D2F70E94BA16BB
:104200000F900F900F900F90CF910C942213CF939B
:10421000DF93EBEFE80FEF3308F044C2F0E0EE502D
:10422000F34D0C94762C88E99CE00E949D0784ED68
:104230009BE00E949D070E94261A1F928F9381ED9A
:104240009BE09F938F930E9436088FEC9BE00E9427
:104250009D070E94221AC82F8CEB9BE00E949D07AD
:104260001F92CF9387EB9BE09F938F930E9436081A
:1042700085EB9BE00E949D078BEA9BE00E949D07D7
:104280008C2F81701F928F9388EA9BE09F938F936E
:104290000E94360886EA9BE00E949D078CE99BE01D
:1042A0000E949D07C1FB882780F91F928F9389E99F
:1042B0009BE09F938F930E94360887E99BE00E94C2
:1042C0009D078BE89BE00E949D07C2FB882780F931
:1042D0001F928F9388E89BE09F938F930E943608EC
:1042E00086E89BE00E949D078DE79BE00E949D076A
:1042F000C3FBCC27C0F91F92CF938AE79BE09F9323
:104300008F930E94360888E79BE00E949D070E94D9
:104310002A1AEC0184E69BE00E949D07DF93CF936D
:104320008FE59BE09F938F930E9436088DE59BE07D
:104330000E949D0784E49BE00E949D078C2F817062
:104340001F928F9381E49BE09F938F930E94360886
:104350008DB79EB780960FB6F8949EBF0FBE8DBFE7
:104360008FE39BE00E949D0788E29BE00E949D07EF
:10437000C1FB882780F91F928F9385E29BE09F9372
:104380008F930E94360883E29BE00E949D0781E1A3
:104390009BE00E949D078D2F81701F928F938EE06E
:1043A0009BE09F938F930E9436088CE09BE00E94D5
:1043B0009D078AEF9AE00E949D07D695D1701F92C3
:1043C000DF9387EF9AE09F938F930E94360885EFE3
:1043D0009AE00E949D0783EE9AE00E949D07C2FB2F
:1043E000882780F91F928F9380EE9AE09F938F9396
:1043F0000E9436088EED9AE00E949D078CEC9AE0B0
:104400000E949D07C3FB882780F91F928F9389EC38
:104410009AE09F938F930E94360887EC9AE00E945F
:104420009D078DEB9AE00E949D07C4FB882780F9C9
:104430001F928F938AEB9AE09F938F930E94360886
:1044400088EB9AE00E949D0786EA9AE00E949D0709
:10445000C5FB882780F91F928F9383EA9AE09F9388
:104460008F930E94360881EA9AE00E949D0785E8B2
:104470009AE00E949D07C6FB882780F91F928F93C0
:1044800082E89AE09F938F930E9436088DB79EB77B
:1044900080960FB6F8949EBF0FBE8DBF80E89AE05D
:1044A0000E949D0788E79AE00E949D07C7FBCC27E2
:1044B000C0F91F92CF9385E79AE09F938F930E9454
:1044C000360883E79AE00E949D070F900F900F90A7
:1044D0000F9081E01CC087E89CE00E949D070E942D
:1044E000B41AF7CF81EC98E00E949D07F2CF80913B
:1044F0004802807F809348028AE998E00E949D07E5
:1045000083E89CE00E949D0781E080935902DF913F
:10451000CF91089587E69CE00E949D070E94A40920
:10452000D8CF90914802892F8E7F90FF8160809331
:10453000480280FF03C08BE59CE0D6CF8EE49CE070
:104540000E949D0780914802817F80934802C1CFDD
:1045500090914802892F8D7F91FF8260809348025D
:1045600081FF08C081E49CE00E949D078091480281
:104570008160EBCF83E39CE0B7CF90914802892F15
:104580008B7F92FF84608093480282FF03C084E2A5
:104590009CE0EACF84E19CE0A7CF90914802892F6C
:1045A000877F93FF88608093480283FF03C088E081
:1045B0009CE0DACF8BEF9BE097CF8BE898E00E94EE
:1045C0009D0786E598E00E949D078AE198E00E9499
:1045D0009D0783EE97E00E949D0788EA97E00E947E
:1045E0009D078DE797E080CF8FE697E00E949D07BB
:1045F0000E94140E1F928F9385E597E09F938F93EF
:104600000E943608809114011F928F938EE397E0E9
:104610009F938F930E94360880917E021F928F9302
:104620008BE297E09F938F930E94360880918602D9
:1046300087FB882780F91F928F9383E197E09F93F0
:104640008F930E9436080E942A1C9F938F937F931A
:104650006F938CEF96E09F938F930E9436088DB7EF
:104660009EB746960FB6F8949EBF0FBE8DBF31CF52
:104670000E94221390918602892F97FB87F9805818
:104680008093860287FF03C081EF9BE02DCF86EEEB
:104690009BE02ACF80E00E94E9201BCF8953FBCF0B
:1046A0008D51F9CF84EE9BE00E949D0780E02FCFD3
:1046B00080E008950C9458238E518A3030F4E82F0E
:1046C000F0E0E958FE4F8081089580E00895CF938F
:1046D000C82F809159028130C1F0882339F082308F
:1046E00009F447C01092590280E00DC00E94C4181E
:1046F0008232D1F78C2F0E94582381111BC08C2F3E
:104700000E9407218170CF9108950E94C4188232BF
:1047100089F38C2F0E945A2381111BC0C431D9F018
:1047200060F4CB3071F0C031D1F08DEE96E00E9494
:104730009D0713C081E090E0E5CFC93261F0C83336
:10474000A1F78AE998E00E949D0783EF96E00E9416
:104750009D0781E0D7CF1092590280E0D3CF0E940D
:10476000AF1F8FEE96E00E949D0782E08093590272
:10477000F0CFC432C8F4CE3108F0BEC0CB30E1F087
:1047800040F4C73009F4CCC081E995E00E949D0750
:1047900026C0C331C1F1C431B9F7809158028823D2
:1047A00051F1109258020AC0CB3409F4B7C0C8F4D2
:1047B000C93299F3C83341F70E94AF1F8091580264
:1047C000882309F4C4C01F928F938BE895E09F93D0
:1047D0008F930E9436080F900F900F900F9081E0FA
:1047E00092CFC13509F494C0C23509F48BC0CE34E0
:1047F00059F66AE08EC080EA95E00E949D0781E04C
:104800008093590280CF8AE795E00E949D0788E651
:1048100095E00E949D07809109011F928F9385E684
:1048200095E09F938F930E94360883E695E00E945F
:104830009D0781E595E00E949D07809108011F92E8
:104840008F938EE495E09F938F930E9436088CE4BB
:1048500095E00E949D078DE395E00E949D07809161
:1048600007011F928F938AE395E09F938F930E9495
:10487000360888E395E00E949D0787E295E00E9454
:104880009D07809106011F928F9384E295E09F938C
:104890008F930E94360882E295E00E949D078DE08A
:1048A00095E00E949D07809103011F928F938AE0FB
:1048B00095E09F938F930E94360888E095E00E94D0
:1048C0009D0781EF94E00E949D07809102011F9255
:1048D0008F938EEE94E09F938F930E9436088CEE18
:1048E00094E00E949D078DB79EB748960FB6F89446
:1048F0009EBF0FBE8DBF62CF8C2F0E945C23809322
:1049000058025CCF61E0809158020E94C61F56CFCA
:1049100061E0809158020E946A2050CF6AE0F3CF94
:104920008EE18093090182E3809308018AE08093FD
:10493000070184E18093060188E08093030188E207
:104940008093020183E995E00E949D0737CF88E8B4
:1049500095E01CCF80917D0208959FB7F894109246
:104960005C029FBF90918C02943009F048C0209166
:10497000E9002F703091EC00932F917030FD90E89A
:10498000922B23E02093E9002091EB0020FF34C01C
:104990002091EE0027FF30C020915A02222321F0FF
:1049A0002091E80025FF28C010925A0226E030919D
:1049B000E80035FF14C08093F1008091E80085FD88
:1049C00027C08091E80080FFFCCF8091E8008E77BF
:1049D0008093E8009F709093E90080E00895309103
:1049E0008C02343049F43091EB0035FD05C0215084
:1049F00041F481E080935A029F709093E9008FEF19
:104A00000895EFE9FFE03197F1F700C00000CFCF44
:104A10008FB7F89421E020935C028FBFDBCFCF9358
:104A2000DF9300D00F92CDB7DEB790918C02943017
:104A300019F589837B836A8382E08093E9008FEF95
:104A40009091E800815095FD06C095ED9A95F1F79B
:104A500000008111F5CF8091E80085FF0DC050E086
:104A600040E063E070E0CE0101960E94C62780918D
:104A7000E8008E778093E8000F900F900F90DF9101
:104A8000CF910895CF93DF93EC010E94A927823044
:104A900011F0843031F4BE0184E0DF91CF910C94A9
:104AA0000F25DF91CF910895BC0183E00C940F2571
:104AB000CF93DF93EC010E94A927823011F084305C
:104AC000F9F482E08093E9008FEF9091E800815043
:104AD00095FD06C095ED9A95F1F700008111F5CF8F
:104AE0008091E80085FF0CC050E040E066E070E097
:104AF000CE010E94C6278091E8008E778093E8005F
:104B0000DF91CF910895CF93DF93EC010E94A92705
:104B1000823011F08430B9F5809114018823B1F10D
:104B20008091860287FF32C060E282E08093E900D4
:104B30008FEF9091E800815095FD06C095ED9A9514
:104B4000F1F700008111F5CF8091E80085FF1BC0CF
:104B50008091140170E050E040E0811104C050E009
:104B600040E068E070E0CE010E94C6278091E80036
:104B70008E778093E80080E2FE01ADE5B2E001901F
:104B80000D928A95E1F7DF91CF91089568E081E079
:104B9000CDCF88EC9CE00E949D0780918B02811113
:104BA00009C00E9456290E94B3298091E2008460C6
:104BB0008093E200089584EC9CE00E949D0710928F
:104BC0008B02089580EC9CE00C949D078CEB9CE09C
:104BD0000C949D0788EB9CE00E949D070C94E61BBB
:104BE00020915B022F5F822F62E30E94562C992353
:104BF00019F020935B02089510925B0280915C0291
:104C00008823F1F080918C028430C1F49091E90006
:104C10009F702091EC00822F817020FD80E8892B0D
:104C200093E09093E9009091EB0090FF04C0909185
:104C3000EE0097FD08C08F708093E90010925C022F
:104C400008951092F1009091E80095FDFACF9091AF
:104C5000E80090FFF0CF9091E8009E779093E800F5
:104C6000EACF42E061EC81E00E94D22842E261ECAE
:104C700082E00E94D22842E261EC83E00C94D228C8
:104C800080918E02833009F45FC030F48130C1F12D
:104C9000823009F49BC008958A3009F487C08B30B4
:104CA00009F46DC0893009F04EC080918D028132C7
:104CB00009F049C08091910290919202029708F008
:104CC00042C08091E800877F8093E8008091E800EF
:104CD00082FF35C09091F3008091F200029729F491
:104CE0008091F1008B7F813021F48091F1008093DD
:104CF0007D028091E8008B778093E8000C94062970
:104D000080918D02813AF9F48091E800877F809349
:104D1000E8008091910290919202892B61F460E207
:104D20008DE592E070E00E9415288091E8008B7775
:104D30008093E800089560E090E080E0F3CF8091F8
:104D40008C028111C3CF089580918D02813AD9F7E9
:104D50008091910290919202892BA9F78091E800AD
:104D6000877F8093E8008091E80080FFFCCF8091EE
:104D700014018093F1008091E8008E77BDCF80917F
:104D80008D02813201F78091910290919202892BDC
:104D9000D1F68091E800877F8093E8000E94062981
:104DA00080918F02809314010C94221380918D02C4
:104DB000813249F68091E800877F8093E8000E9465
:104DC00006298091900280937E02089580918D0241
:104DD000813A09F0B8CF8091E800877F8093E8009E
:104DE0008091E80080FFFCCF80917E02C2CF84B723
:104DF000877F84BF0FB6F894A89580916000886182
:104E000080936000109260000FBE80E890E00FB6C3
:104E1000F89480936100909361000FBE0E94C30ECE
:104E20000E9456290E94B3298091E20084608093F9
:104E3000E2008DEA94E20E94A01978940E943B2C33
:104E40000E94CD0E8AE091E00E940F0E87EA9CE05E
:104E50000E949D0780918C02853019F00E94FD0E02
:104E6000F9CF83EA9CE00E949D070E949D1B8091E0
:104E70008A02882379F30E94CE1B882359F30E946B
:104E8000B027E8CF0C944427292F3327233031054E
:104E900021F168F42130310509F449C0223031058F
:104EA00009F44AC090E080E030E020E029C02132DF
:104EB000310581F122323105A9F76330710590F790
:104EC000FB01EE0FFF1FEC57FE4F208131816F5722
:104ED0007E4FFB01808190E013C0992781309105BE
:104EE00099F0009741F08230910589F00397D1F64F
:104EF000ECECFCE002C0E0E0FDE0849190E09F017A
:104F0000FA01318320830895E6EFFCE0F6CFE2ED6D
:104F1000FCE0F3CF6330710528F6660F771FFB01C5
:104F2000E657FE4F2081318189E090E0E9CF82E1B0
:104F300090E02FE53DE0E4CF8BE590E024E03DE01C
:104F4000DFCF80918C02843011F482E0089581E0FB
:104F5000089580917F02811102C00C94A1270895C9
:104F600080E189BD82E189BD09B400FEFDCF809159
:104F7000D8008F7D8093D8008091E000826080937C
:104F8000E0008091E00081FDFCCF0895AF92BF92D8
:104F9000CF92DF92FF920F931F93CF93DF936C0119
:104FA000EB018A010E942529F82E811123C00115E9
:104FB000110539F0F80180819181C81BD90BC80E09
:104FC000D91EB12CA12C2097A9F08091E80085FD75
:104FD00022C08091E8008E778093E80001151105CA
:104FE000A1F0F80180819181A80EB91EB182A08242
:104FF00085E0F82E8F2DDF91CF911F910F91FF90BB
:10500000DF90CF90BF90AF9008950E94252988230C
:10501000D1F2F82EEFCFF60181916F018093F1006C
:105020002197FFEFAF1ABF0ACECFFC018091930208
:105030009091940286179707A0F06115710529F4E5
:105040009091E8009E779093E80090E061157105DB
:1050500051F4911108C08091E80082FF34C080E0D3
:105060000895BC01F2CF80918C028823C1F1853074
:10507000C1F18091E80083FD30C08091E80082FD9D
:10508000EACF8091E80080FFE1CF8091F30020918A
:10509000F200382F6115710519F02830310558F0EC
:1050A00091E02830310509F090E02091E8002E775A
:1050B0002093E800CBCF81918093F100615071097A
:1050C0002F5F3F4FE7CF80918C02882341F08530DE
:1050D00041F08091E80083FFBECF81E0089582E037
:1050E000089583E00895FC018091930290919402C9
:1050F00086179707A0F06115710529F48091E800E3
:105100008E778093E80090E06115710551F491115C
:1051100008C08091E80082FF35C080E00895BC019E
:10512000F2CF80918C028823C9F18530C9F180913A
:10513000E80083FD31C08091E80082FDEACF8091D4
:10514000E80080FFE1CF8091F3002091F200382F3A
:105150006115710519F02830310558F091E02830BB
:10516000310509F090E08091E8008E778093E800A7
:10517000CBCF84918093F1003196615071092F5FFC
:105180003F4FE6CF80918C02882341F0853041F07B
:105190008091E80083FFBDCF81E0089582E008950B
:1051A00083E00895982F973028F08F708093E9005E
:1051B00081E008959093E900242F762F50E098170E
:1051C00031F07091EC002091ED005091F00021FD44
:1051D00002C09F5FE8CF3091EB003E7F3093EB0041
:1051E0003091ED003D7F3093ED003091EB00316068
:1051F0003093EB007093EC002093ED005093F0009F
:105200002091EE0027FDE5CF80E0089580918D028A
:1052100087FF13C08091E80082FF06C08091E800FC
:105220008B778093E80004C080918C028111F2CFCB
:10523000089580918C028823D9F38091E80080FF43
:10524000F8CF8091E8008E77ECCF2091E400309188
:10525000E50095E6A9012091EC00822F817020FFE6
:1052600006C08091E80080FF06C080E0089520918C
:10527000E80022FD1AC080918C02882389F08530D5
:1052800089F08091EB0085FD0FC02091E400309102
:10529000E50042175307F9F29150E1F684E00895D2
:1052A00082E0089583E0089581E008950E94C42972
:1052B0000E94CC29E0EEF0E0808181608083E8EDFF
:1052C000F0E080818F77808319BCA7EDB0E08C91EE
:1052D0008E7F8C9380818F7E808310928B020895C5
:1052E0000F931F93CF93DF930E94C4290E94CC2970
:1052F000C8EDD0E088818F77888388818068888333
:1053000088818F7D888319BC10928C02109288024C
:1053100010928A021092890200EE10E0F80180815A
:105320008B7F808388818160888342E060E080E0B9
:105330000E94D228E1EEF0E080818E7F8083E2EE51
:10534000F0E0808181608083808188608083F801C3
:1053500080818E7F8083888180618883DF91CF9177
:105360001F910F910895E8EDF0E080818F7E80839A
:10537000E7EDF0E080818160808384E082BF81E09E
:1053800080938B020C947029E8EDF0E080818E7F91
:1053900080831092E20008951092DA001092E100EA
:1053A00008951F920F920FB60F9211242F933F93DF
:1053B0004F935F936F937F938F939F93AF93BF931D
:1053C000EF93FF938091E10082FF0BC08091E20098
:1053D00082FF07C08091E1008B7F8093E1000E94F3
:1053E000F0258091DA0080FF19C08091D80080FFFD
:1053F00015C08091DA008E7F8093DA008091D90009
:1054000080FF96C080E189BD82E189BD09B400FEBC
:10541000FDCF81E080938C020E94C9258091E1003C
:1054200080FF19C08091E20080FF15C08091E200EA
:105430008E7F8093E2008091E20080618093E200A1
:105440008091D80080628093D80019BC85E0809359
:105450008C020E94E6258091E10084FF2BC08091A0
:10546000E20084FF27C080E189BD82E189BD89B562
:10547000982F917080FFFBCF8091D8008F7D809313
:10548000D8008091E1008F7E8093E1008091E2005E
:105490008F7E8093E2008091E20081608093E20041
:1054A00080918802882309F449C084E080938C02AB
:1054B0000E94EA258091E10083FF29C08091E200EB
:1054C00083FF25C08091E100877F8093E10082E027
:1054D00080938C02109288028091E1008E7F8093ED
:1054E000E1008091E2008E7F8093E2008091E200F3
:1054F00080618093E20042E060E080E00E94D22878
:105500008091F00088608093F0000E94E225FF9176
:10551000EF91BF91AF919F918F917F916F915F912B
:105520004F913F912F910F900FBE0F901F901895A4
:1055300019BC10928C020E94DB2570CF8091E30091
:1055400087FD93E090938C02B3CF1F920F920FB61A
:105550000F9211242F933F934F935F936F937F93F9
:105560008F939F93AF93BF93CF93DF93EF93FF936B
:10557000D091E900DF708091EC00C82FC17080FDF0
:10558000C0E81092E9008091F000877F8093F000DE
:1055900078940E94E92A1092E9008091F0008860D6
:1055A0008093F000CD2BCF70C093E900FF91EF9175
:1055B000DF91CF91BF91AF919F918F917F916F912B
:1055C0005F914F913F912F910F900FBE0F901F90C1
:1055D00018951F93CF93DF93CDB7DEB7AA970FB679
:1055E000F894DEBF0FBECDBF8DE892E02091F100B0
:1055F000FC012193CF01F2E085399F07B9F70E94A2
:1056000040268091E80083FF1EC180918D02909119
:105610008E029A3008F017C1E92FF0E0EF5CF24DEE
:105620000C94762C803899F0823809F00CC1809166
:1056300091028F70873008F006C18093E900809155
:10564000EB0085FB882780F91092E90006C0809165
:10565000890290918A02911182609091E800977F6F
:105660009093E8008093F1001092F1008091E8009F
:105670008E77E5C0882309F4D3C0823009F0E3C0F7
:1056800080918F028111D6C0809191028F702FEF8F
:10569000280F263008F0D7C08093E9002091EB0056
:1056A00020FFC8C0933031F48091EB00806280937A
:1056B000EB00C0C09091EB0090619093EB0021E073
:1056C00030E001C0220F8A95EAF72093EA00109299
:1056D000EA008091EB008860EACF8111B4C010919C
:1056E0008F021F778091E3008078812B8093E30005
:1056F0008091E800877F8093E8000E9406298091CE
:10570000E80080FFFCCF8091E30080688093E30095
:1057100082E0111183E080938C0295C08058823022
:1057200008F091C080918F02909190028C3D23E00F
:105730009207A1F583E08A838AE289834FB7F894C0
:10574000DE01139620E03EE051E2E32FF0E05093BB
:105750005700E49120FF03C0E295EF703F5FEF70C8
:105760008E2F90E0EA30C0F0C7968D939D932F5F07
:10577000243159F74FBF8091E800877F8093E8007C
:105780006AE270E0CE0101960E9415288091E8003F
:105790008B778093E80057C0C096E7CF6091910265
:1057A00070919202AE014F5F5F4F0E944227BC0191
:1057B000892B09F448C09091E800977F9093E80006
:1057C00089819A810E947328E1CF8038E1F5809128
:1057D000E800877F8093E800809188028093F10041
:1057E00045CF811130C090918F02923060F5809149
:1057F000E800877F8093E800909388020E94062942
:1058000080918802882311F084E005C08091E30034
:1058100087FDFACF81E080938C020E94312613C06D
:1058200080918F02813079F481E0933009F080E03B
:1058300080938A021092E9008091E800877F80932C
:10584000E8000E9406298091E80083FF0AC0809149
:10585000E800877F8093E8008091EB00806280936E
:10586000EB00AA960FB6F894DEBF0FBECDBFDF9156
:10587000CF911F910895CF9380918C028823A1F03E
:10588000C091E900CF709091EC00892F817090FD5C
:1058900080E8C82B1092E9008091E80083FD0E9407
:1058A000E92ACF70C093E900CF910895991B79E060
:1058B00004C0991F961708F0961B881F7A95C9F7A0
:1058C0008095089597FB072E16F4009407D077FD76
:1058D00009D00E947C2C07FC05D03EF49095819560
:1058E0009F4F0895709561957F4F0895EE0FFF1FAC
:1058F0000590F491E02D0994AA1BBB1B51E107C050
:10590000AA1FBB1FA617B70710F0A61BB70B881F4F
:10591000991F5A95A9F780959095BC01CD010895DE
:10592000F999FECF92BD81BDF89A992780B5089567
:10593000A8E1B0E042E050E00C94C42C262FF99985
:10594000FECF92BD81BDF89A019700B4021639F0DE
:105950001FBA20BD0FB6F894FA9AF99A0FBE0895AF
:105960000396272F0E949F2C0E949E2C252F0E9479
:105970009F2C242F0C949F2C0196272F0E949F2C44
:105980000C949E2CDC01CB01FC01F999FECF06C0E2
:10599000F2BDE1BDF89A319600B40D9241505040ED
:1059A000B8F70895F894FFCFC010C010181118115F
:1059B0006A118611ED10ED10C811541263126312B2
:1059C000BF12ED10ED10C812311331133A133A1310
:1059D0003C133A133A133A133113311341133A1368
:1059E0003A1341138A227722912213215223522300
:1059F000722252235223BD225223CD223823522316
:105A0000522352235223F42252235223DD225223C3
:105A1000A822522352235023502350235023502393
:105A200050235023502350234A2352238A226B228F
:105A300052235223522352235223522352235223BE
:105A4000522352234A2352235223722252234E239B
:105A50004E234E234E234E234E234E234E234E23BE
:105A60004A23122B3A2B232C3A2B232C6D2B8E2BD3
:065A7000232CE52BF12BB5
:105A760025022808641E140A321EAA2483255825E6
:105A86005425422501E200E900EA00B500B600B758
:105A960000CD008301CC008A0192019401210223EA
:105AA6000224022502260227022A02B300B4006F4E
:105AB600007000818283E200E900EA00B500B600CA
:105AC600B700CD008301CC008A0192019401210226
:105AD600230224022502260227022A02B300B4006A
